:020000040800F2
:1000000060060020450100082502000823020008C0
:1000100000000000000000000000000000000000E0
:10002000000000000000000000000000290200089D
:10003000000000000000000027020008C9020008BC
:1000400075010008750100087501000875010008B8
:1000500075010008750100087501000875010008A8
:100060007501000875010008750100087501000898
:100070007501000875010008750100087501000888
:100080007501000875010008750100087501000878
:100090007501000875010008750100087501000868
:1000A0007501000875010008750100087501000858
:1000B00075010008750100087501000800F002F8DC
:1000C00000F030F80CA030C8083824182D18A246CB
:1000D000671EAB4654465D46AC4201D100F022F8A3
:1000E0007E460F3E0FCCB6460126334200D0FB1AA7
:1000F000A246AB46334318473802000048020000CE
:100100000023002400250026103A01D378C1FBD833
:10011000520700D330C100D50B6070471FB51FBD1B
:1001200010B510BD00F04BF81146FFF7F7FF00F0D7
:10013000FDF800F063F803B4FFF7F2FF03BC00F032
:1001400069F800000F4880F308880F480168090E1D
:100150000E4A914205D10E480E4901600E480F49E2
:1001600001600F4880470F480047FEE7FEE7FEE7C3
:10017000FEE7FEE7FEE700000B480C490C4A0D4B7A
:100180007047000060060020040000001F0000000F
:1001900018100240010000000000014000000000B3
:1001A000CD020008BD0000086000002060060020AD
:1001B000600200206002002070477047704775465B
:1001C00000F024F8AE46050069465346C008C0005A
:1001D000854618B020B5FFF7CFFF60BC002749085F
:1001E000B6460026C0C5C0C5C0C5C0C5C0C5C0C5CF
:1001F000C0C5C0C5403D49008D46704710B5044696
:10020000C046C0462046FFF796FF10BD0048704725
:100210000000002001491820ABBEFEE726000200C6
:100220007047FEE770477047704700001CB5002319
:1002300001930093224801680122120411430160D6
:1002400051000524240302680A400092019A521CBE
:100250000192009A002A02D1019AA242F3D10168C8
:10026000890302D50121009100E000930099012942
:1002700025D1144911220A604168416041684160FA
:1002800041687F22D20391434160416811221204E8
:1002900011434160016801221206114301600168A7
:1002A0008901FCD5416889088900416041680222C2
:1002B0001143416041680907890F0229FAD11CBD29
:1002C00000100240002002407047000010B51448A2
:1002D00001680122114301604168124A11404160E6
:1002E0000168114A114001600168012292049143A2
:1002F000016041683F22120491434160C16A0909CB
:100300000901C162016BFF22543291430163416BC9
:1003100049084900416300218160FFF787FF10BD54
:10032000001002400CB8FF08FFFFF6FEFEE70000D9
:1003300040030008000000206006000000010008E3
:04000005080000BD32
:00000001FF
